{
  "contractName": "apuntarse",
  "abi": [
    {
      "constant": true,
      "inputs": [],
      "name": "coin",
      "outputs": [
        {
          "name": "",
          "type": "address"
        }
      ],
      "payable": false,
      "stateMutability": "view",
      "type": "function"
    },
    {
      "constant": true,
      "inputs": [],
      "name": "owner",
      "outputs": [
        {
          "name": "",
          "type": "address"
        }
      ],
      "payable": false,
      "stateMutability": "view",
      "type": "function"
    },
    {
      "inputs": [
        {
          "name": "_coin",
          "type": "address"
        }
      ],
      "payable": false,
      "stateMutability": "nonpayable",
      "type": "constructor"
    },
    {
      "constant": false,
      "inputs": [
        {
          "name": "_name",
          "type": "bytes32"
        },
        {
          "name": "_add",
          "type": "address"
        },
        {
          "name": "_numero",
          "type": "uint8"
        }
      ],
      "name": "apuntarseCTF",
      "outputs": [],
      "payable": false,
      "stateMutability": "nonpayable",
      "type": "function"
    },
    {
      "constant": false,
      "inputs": [],
      "name": "desapuntarse",
      "outputs": [],
      "payable": false,
      "stateMutability": "nonpayable",
      "type": "function"
    },
    {
      "constant": true,
      "inputs": [],
      "name": "apuntado",
      "outputs": [
        {
          "name": "",
          "type": "bool"
        }
      ],
      "payable": false,
      "stateMutability": "view",
      "type": "function"
    },
    {
      "constant": true,
      "inputs": [],
      "name": "getLocked",
      "outputs": [
        {
          "name": "",
          "type": "bool"
        }
      ],
      "payable": false,
      "stateMutability": "view",
      "type": "function"
    },
    {
      "constant": true,
      "inputs": [],
      "name": "getCoins",
      "outputs": [
        {
          "name": "",
          "type": "uint256"
        }
      ],
      "payable": false,
      "stateMutability": "view",
      "type": "function"
    },
    {
      "constant": true,
      "inputs": [],
      "name": "getContractCoins",
      "outputs": [
        {
          "name": "",
          "type": "uint256"
        }
      ],
      "payable": false,
      "stateMutability": "view",
      "type": "function"
    },
    {
      "constant": false,
      "inputs": [],
      "name": "contractTransfer",
      "outputs": [],
      "payable": false,
      "stateMutability": "nonpayable",
      "type": "function"
    }
  ],
  "bytecode": "0x608060405260008060006101000a81548160ff02191690831515021790555034801561002a57600080fd5b50604051602080610cde833981018060405281019080805190602001909291905050506000600360003373ffffffffffffffffffffffffffffffffffffffff1673ffffffffffffffffffffffffffffffffffffffff16815260200190815260200160002060006101000a81548160ff02191690831515021790555033600160006101000a81548173ffffffffffffffffffffffffffffffffffffffff021916908373ffffffffffffffffffffffffffffffffffffffff16021790555080600260006101000a81548173ffffffffffffffffffffffffffffffffffffffff021916908373ffffffffffffffffffffffffffffffffffffffff160217905550600260009054906101000a900473ffffffffffffffffffffffffffffffffffffffff1673ffffffffffffffffffffffffffffffffffffffff16631249c58b6040518163ffffffff167c0100000000000000000000000000000000000000000000000000000000028152600401600060405180830381600087803b1580156101ad57600080fd5b505af11580156101c1573d6000803e3d6000fd5b5050505050610b09806101d56000396000f300608060405260043610610099576000357c0100000000000000000000000000000000000000000000000000000000900463ffffffff16806311df99951461009e57806313c390ef146100f55780631b801b3f146101205780632172184c146101375780632b9d41fb146101665780632d49ffcd146101c45780638849d0f1146101f35780638da5cb5b1461020a578063dd11a59814610261575b600080fd5b3480156100aa57600080fd5b506100b361028c565b604051808273ffffffffffffffffffffffffffffffffffffffff1673ffffffffffffffffffffffffffffffffffffffff16815260200191505060405180910390f35b34801561010157600080fd5b5061010a6102b2565b6040518082815260200191505060405180910390f35b34801561012c57600080fd5b506101356103b1565b005b34801561014357600080fd5b5061014c61059c565b604051808215151515815260200191505060405180910390f35b34801561017257600080fd5b506101c26004803603810190808035600019169060200190929190803573ffffffffffffffffffffffffffffffffffffffff169060200190929190803560ff1690602001909291905050506105f0565b005b3480156101d057600080fd5b506101d9610887565b604051808215151515815260200191505060405180910390f35b3480156101ff57600080fd5b5061020861089d565b005b34801561021657600080fd5b5061021f6109b8565b604051808273ffffffffffffffffffffffffffffffffffffffff1673ffffffffffffffffffffffffffffffffffffffff16815260200191505060405180910390f35b34801561026d57600080fd5b506102766109de565b6040518082815260200191505060405180910390f35b600260009054906101000a900473ffffffffffffffffffffffffffffffffffffffff1681565b6000600260009054906101000a900473ffffffffffffffffffffffffffffffffffffffff1673ffffffffffffffffffffffffffffffffffffffff166370a08231336040518263ffffffff167c0100000000000000000000000000000000000000000000000000000000028152600401808273ffffffffffffffffffffffffffffffffffffffff1673ffffffffffffffffffffffffffffffffffffffff168152602001915050602060405180830381600087803b15801561037157600080fd5b505af1158015610385573d6000803e3d6000fd5b505050506040513d602081101561039b57600080fd5b8101908080519060200190929190505050905090565b600360003373ffffffffffffffffffffffffffffffffffffffff1673ffffffffffffffffffffffffffffffffffffffff16815260200190815260200160002060009054906101000a900460ff161515610498576040517f08c379a00000000000000000000000000000000000000000000000000000000081526004018080602001828103825260268152602001807f4e6f20746520656e6375656e74726173206170756e7461646f20656e20656c2081526020017f74616c6c6572000000000000000000000000000000000000000000000000000081525060400191505060405180910390fd5b600260009054906101000a900473ffffffffffffffffffffffffffffffffffffffff1673ffffffffffffffffffffffffffffffffffffffff166390b98a113360016040518363ffffffff167c0100000000000000000000000000000000000000000000000000000000028152600401808373ffffffffffffffffffffffffffffffffffffffff1673ffffffffffffffffffffffffffffffffffffffff16815260200182815260200192505050602060405180830381600087803b15801561055e57600080fd5b505af1158015610572573d6000803e3d6000fd5b505050506040513d602081101561058857600080fd5b810190808051906020019092919050505050565b6000600360003373ffffffffffffffffffffffffffffffffffffffff1673ffffffffffffffffffffffffffffffffffffffff16815260200190815260200160002060009054906101000a900460ff16905090565b60008084826000018160001916905550838260010160006101000a81548173ffffffffffffffffffffffffffffffffffffffff021916908373ffffffffffffffffffffffffffffffffffffffff16021790555060018301905060008360ff161115156106c4576040517f08c379a000000000000000000000000000000000000000000000000000000000815260040180806020018281038252601f8152602001807f5475206e756d65726f206e6f20707565646520736572206e6567617469766f0081525060200191505060405180910390fd5b60008160ff16141515610765576040517f08c379a000000000000000000000000000000000000000000000000000000000815260040180806020018281038252603c8152602001807f456c206e756d65726f2064652065717569706f2073696775652073696e20736581526020017f722076616c69646f2c20696e74656e74616c6f206465206e7565766f0000000081525060400191505060405180910390fd5b6000809054906101000a900460ff16151561080e576040517f08c379a000000000000000000000000000000000000000000000000000000000815260040180806020018281038252603f8152602001807f456c20636f6e747261746f207365206465626520656e636f6e7472617220646581526020017f73626c6f71756561646f207061726120706f646572206170756e74617273650081525060400191505060405180910390fd5b6001600360003373ffffffffffffffffffffffffffffffffffffffff1673ffffffffffffffffffffffffffffffffffffffff16815260200190815260200160002060006101000a81548160ff02191690831515021790555060008060006101000a81548160ff0219169083151502179055505050505050565b60008060009054906101000a900460ff16905090565b600360003373ffffffffffffffffffffffffffffffffffffffff1673ffffffffffffffffffffffffffffffffffffffff16815260200190815260200160002060009054906101000a900460ff16151561095e576040517f08c379a00000000000000000000000000000000000000000000000000000000081526004018080602001828103825260208152602001807f4e6f20746520656e6375656e74726173206170756e7461646f20616c2043544681525060200191505060405180910390fd5b6000600360003373ffffffffffffffffffffffffffffffffffffffff1673ffffffffffffffffffffffffffffffffffffffff16815260200190815260200160002060006101000a81548160ff021916908315150217905550565b600160009054906101000a900473ffffffffffffffffffffffffffffffffffffffff1681565b6000600260009054906101000a900473ffffffffffffffffffffffffffffffffffffffff1673ffffffffffffffffffffffffffffffffffffffff166370a08231306040518263ffffffff167c0100000000000000000000000000000000000000000000000000000000028152600401808273ffffffffffffffffffffffffffffffffffffffff1673ffffffffffffffffffffffffffffffffffffffff168152602001915050602060405180830381600087803b158015610a9d57600080fd5b505af1158015610ab1573d6000803e3d6000fd5b505050506040513d6020811015610ac757600080fd5b81019080805190602001909291905050509050905600a165627a7a72305820697b14fae579aeae78ac552ade03b576b8ae20797f2ba8787f0056e735a9b9b30029",
  "source": "//SPDX-License-Identifier: AFL-3.0\r\n\r\npragma solidity 0.4.23;\r\n\r\nimport \"../tokens/apuntarseCoin.sol\";\r\n\r\n\r\ncontract apuntarse {\r\n\r\n    //Requerimos que el contrato este desbloqueado para apuntarse\r\n    //Variables de mierda para no overwritear\r\n    bool lock = false;\r\n    address private trash;\r\n    uint8 n_participantes;\r\n\r\n    //Important variables\r\n    address public owner;\r\n    apuntarseCoin public coin;\r\n    \r\n    //Información sobre los participantes del CTF\r\n    struct playerInfo {\r\n        bytes32 nick;\r\n        address add;\r\n        uint8 numero;\r\n    }\r\n\r\n    mapping(address => bool) participantes;\r\n    mapping(address => playerInfo) register;\r\n    \r\n    constructor (apuntarseCoin _coin) public {\r\n        participantes[msg.sender] = false;\r\n        owner = msg.sender;\r\n        coin = _coin;\r\n        coin.mint();\r\n    }\r\n\r\n    function apuntarseCTF(bytes32 _name, address _add, uint8 _numero) public {\r\n        \r\n        playerInfo information;\r\n        information.nick = _name;\r\n        information.add = _add;\r\n\r\n        uint8 aux = _numero + 1;\r\n        require(_numero > 0, \"Tu numero no puede ser negativo\");\r\n        require(aux == 0, \"El numero de equipo sigue sin ser valido, intentalo de nuevo\");\r\n\r\n        require(lock, \"El contrato se debe encontrar desbloqueado para poder apuntarse\");\r\n\r\n        participantes[msg.sender] = true;\r\n\r\n        lock = false;\r\n    }\r\n\r\n    function desapuntarse() external {\r\n        require(participantes[msg.sender], \"No te encuentras apuntado al CTF\");\r\n        participantes[msg.sender] = false;\r\n    }\r\n\r\n    function apuntado() external view returns (bool) {\r\n        return participantes[msg.sender];\r\n    }\r\n\r\n    function getLocked() external view returns (bool) {\r\n        return lock;\r\n    }\r\n\r\n    function getCoins() external view returns (uint256) {\r\n        return coin.balanceOf(msg.sender);\r\n    }\r\n\r\n    function getContractCoins() external view returns (uint256) {\r\n        return coin.balanceOf(address(this));\r\n    }\r\n\r\n    function contractTransfer() public {\r\n        require(participantes[msg.sender], \"No te encuentras apuntado en el taller\");\r\n        coin.sendCoin(msg.sender, 1);\r\n    }\r\n}",
  "sourcePath": "C:\\Users\\pablo\\Desktop\\CTFHackOnDapp\\contracts\\CTF\\apuntarse.sol",
  "compiler": {
    "name": "solc",
    "version": "0.4.23+commit.124ca40d.Emscripten.clang"
  },
  "schemaVersion": "3.4.11",
  "updatedAt": "2023-02-09T10:36:34.632Z",
  "networkType": "ethereum",
  "devdoc": {
    "methods": {}
  },
  "userdoc": {
    "methods": {}
  }
}