{
  "contractName": "apuntarsePayment",
  "abi": [
    {
      "constant": true,
      "inputs": [],
      "name": "coin",
      "outputs": [
        {
          "name": "",
          "type": "address"
        }
      ],
      "payable": false,
      "stateMutability": "view",
      "type": "function"
    },
    {
      "constant": true,
      "inputs": [],
      "name": "owner",
      "outputs": [
        {
          "name": "",
          "type": "address"
        }
      ],
      "payable": false,
      "stateMutability": "view",
      "type": "function"
    },
    {
      "inputs": [
        {
          "name": "_coin",
          "type": "address"
        }
      ],
      "payable": false,
      "stateMutability": "nonpayable",
      "type": "constructor"
    },
    {
      "constant": false,
      "inputs": [],
      "name": "pay_flag",
      "outputs": [],
      "payable": false,
      "stateMutability": "nonpayable",
      "type": "function"
    },
    {
      "constant": true,
      "inputs": [],
      "name": "getFlagHash",
      "outputs": [
        {
          "name": "",
          "type": "string"
        }
      ],
      "payable": false,
      "stateMutability": "view",
      "type": "function"
    }
  ],
  "bytecode": "0x608060405234801561001057600080fd5b5060405160208061082283398101806040528101908080519060200190929190505050336000806101000a81548173ffffffffffffffffffffffffffffffffffffffff021916908373ffffffffffffffffffffffffffffffffffffffff16021790555080600260006101000a81548173ffffffffffffffffffffffffffffffffffffffff021916908373ffffffffffffffffffffffffffffffffffffffff1602179055506040805190810160405280601f81526020017f343536373839307030393837363534353661373873396673696a686762736600815250600390805190602001906100ff929190610106565b50506101ab565b828054600181600116156101000203166002900490600052602060002090601f016020900481019282601f1061014757805160ff1916838001178555610175565b82800160010185558215610175579182015b82811115610174578251825591602001919060010190610159565b5b5090506101829190610186565b5090565b6101a891905b808211156101a457600081600090555060010161018c565b5090565b90565b610668806101ba6000396000f300608060405260043610610062576000357c0100000000000000000000000000000000000000000000000000000000900463ffffffff16806311df9995146100675780638da5cb5b146100be578063ce95240a14610115578063e87045b31461012c575b600080fd5b34801561007357600080fd5b5061007c6101bc565b604051808273ffffffffffffffffffffffffffffffffffffffff1673ffffffffffffffffffffffffffffffffffffffff16815260200191505060405180910390f35b3480156100ca57600080fd5b506100d36101e2565b604051808273ffffffffffffffffffffffffffffffffffffffff1673ffffffffffffffffffffffffffffffffffffffff16815260200191505060405180910390f35b34801561012157600080fd5b5061012a610207565b005b34801561013857600080fd5b506101416104d2565b6040518080602001828103825283818151815260200191508051906020019080838360005b83811015610181578082015181840152602081019050610166565b50505050905090810190601f1680156101ae5780820380516001836020036101000a031916815260200191505b509250505060405180910390f35b600260009054906101000a900473ffffffffffffffffffffffffffffffffffffffff1681565b6000809054906101000a900473ffffffffffffffffffffffffffffffffffffffff1681565b6001600260009054906101000a900473ffffffffffffffffffffffffffffffffffffffff1673ffffffffffffffffffffffffffffffffffffffff166370a08231336040518263ffffffff167c0100000000000000000000000000000000000000000000000000000000028152600401808273ffffffffffffffffffffffffffffffffffffffff1673ffffffffffffffffffffffffffffffffffffffff168152602001915050602060405180830381600087803b1580156102c657600080fd5b505af11580156102da573d6000803e3d6000fd5b505050506040513d60208110156102f057600080fd5b810190808051906020019092919050505010151515610377576040517f08c379a00000000000000000000000000000000000000000000000000000000081526004018080602001828103825260078152602001807f552062726f6b650000000000000000000000000000000000000000000000000081525060200191505060405180910390fd5b600260009054906101000a900473ffffffffffffffffffffffffffffffffffffffff1673ffffffffffffffffffffffffffffffffffffffff1663b96a8af23360016040518363ffffffff167c0100000000000000000000000000000000000000000000000000000000028152600401808373ffffffffffffffffffffffffffffffffffffffff1673ffffffffffffffffffffffffffffffffffffffff16815260200182815260200192505050602060405180830381600087803b15801561043d57600080fd5b505af1158015610451573d6000803e3d6000fd5b505050506040513d602081101561046757600080fd5b81019080805190602001909291905050505060018060003373ffffffffffffffffffffffffffffffffffffffff1673ffffffffffffffffffffffffffffffffffffffff16815260200190815260200160002060006101000a81548160ff021916908315150217905550565b606060011515600160003373ffffffffffffffffffffffffffffffffffffffff1673ffffffffffffffffffffffffffffffffffffffff16815260200190815260200160002060009054906101000a900460ff16151514151561059c576040517f08c379a000000000000000000000000000000000000000000000000000000000815260040180806020018281038252601c8152602001807f4e6f206572657320756e6f206465206c6f732067616e61646f7265730000000081525060200191505060405180910390fd5b60038054600181600116156101000203166002900480601f0160208091040260200160405190810160405280929190818152602001828054600181600116156101000203166002900480156106325780601f1061060757610100808354040283529160200191610632565b820191906000526020600020905b81548152906001019060200180831161061557829003601f168201915b50505050509050905600a165627a7a7230582017ec782433261dabb03919576bec46140fd02db784775462f2403a8f59a71ee50029",
  "source": "//SPDX-License-Identifier: AFL-3.0\r\n\r\npragma solidity 0.4.23;\r\n\r\nimport \"../tokens/apuntarseCoin.sol\";\r\n\r\ncontract apuntarsePayment {\r\n\r\n    address public owner;\r\n    mapping(address => bool) winners;\r\n    apuntarseCoin public coin;\r\n    string private hashed_flag;\r\n\r\n    constructor(apuntarseCoin _coin) public {\r\n        owner = msg.sender;\r\n        coin = _coin;\r\n        hashed_flag = \"4567890p098765456a78s9fsijhgbsf\";\r\n\r\n    }\r\n\r\n    function pay_flag() public {\r\n        require(coin.balanceOf(msg.sender) >= 1, \"U broke\");\r\n        coin.payCoins(msg.sender, 1);\r\n\r\n        winners[msg.sender] = true;\r\n    }\r\n\r\n    function getFlagHash() public view returns (string memory) {\r\n        require(winners[msg.sender] == true, \"No eres uno de los ganadores\");\r\n        return hashed_flag;\r\n    }\r\n}",
  "sourcePath": "C:\\Users\\pablo\\Desktop\\CTFHackOnDapp\\contracts\\payment\\apuntarsePayment.sol",
  "compiler": {
    "name": "solc",
    "version": "0.4.23+commit.124ca40d.Emscripten.clang"
  },
  "schemaVersion": "3.4.11",
  "updatedAt": "2023-02-11T13:01:15.145Z",
  "networkType": "ethereum",
  "devdoc": {
    "methods": {}
  },
  "userdoc": {
    "methods": {}
  }
}