{
  "contractName": "apuntarsePayment",
  "abi": [
    {
      "constant": true,
      "inputs": [],
      "name": "coin",
      "outputs": [
        {
          "name": "",
          "type": "address"
        }
      ],
      "payable": false,
      "stateMutability": "view",
      "type": "function"
    },
    {
      "constant": true,
      "inputs": [],
      "name": "owner",
      "outputs": [
        {
          "name": "",
          "type": "address"
        }
      ],
      "payable": false,
      "stateMutability": "view",
      "type": "function"
    },
    {
      "inputs": [
        {
          "name": "_coin",
          "type": "address"
        }
      ],
      "payable": false,
      "stateMutability": "nonpayable",
      "type": "constructor"
    },
    {
      "constant": false,
      "inputs": [],
      "name": "pay_flag",
      "outputs": [],
      "payable": false,
      "stateMutability": "nonpayable",
      "type": "function"
    },
    {
      "constant": true,
      "inputs": [],
      "name": "getFlagHash",
      "outputs": [
        {
          "name": "",
          "type": "string"
        }
      ],
      "payable": false,
      "stateMutability": "view",
      "type": "function"
    },
    {
      "constant": true,
      "inputs": [],
      "name": "getWinners",
      "outputs": [
        {
          "name": "",
          "type": "address[]"
        }
      ],
      "payable": false,
      "stateMutability": "view",
      "type": "function"
    }
  ],
  "bytecode": "0x608060405234801561001057600080fd5b506040516020806109b483398101806040528101908080519060200190929190505050336000806101000a81548173ffffffffffffffffffffffffffffffffffffffff021916908373ffffffffffffffffffffffffffffffffffffffff16021790555080600360006101000a81548173ffffffffffffffffffffffffffffffffffffffff021916908373ffffffffffffffffffffffffffffffffffffffff160217905550606060405190810160405280602381526020017f343536373839307030393837363534353661373873396673696a68676273666181526020017f32343300000000000000000000000000000000000000000000000000000000008152506004908051906020019061012692919061012d565b50506101d2565b828054600181600116156101000203166002900490600052602060002090601f016020900481019282601f1061016e57805160ff191683800117855561019c565b8280016001018555821561019c579182015b8281111561019b578251825591602001919060010190610180565b5b5090506101a991906101ad565b5090565b6101cf91905b808211156101cb5760008160009055506001016101b3565b5090565b90565b6107d3806101e16000396000f30060806040526004361061006d576000357c0100000000000000000000000000000000000000000000000000000000900463ffffffff16806311df9995146100725780638da5cb5b146100c9578063ce95240a14610120578063df15c37e14610137578063e87045b3146101a3575b600080fd5b34801561007e57600080fd5b50610087610233565b604051808273ffffffffffffffffffffffffffffffffffffffff1673ffffffffffffffffffffffffffffffffffffffff16815260200191505060405180910390f35b3480156100d557600080fd5b506100de610259565b604051808273ffffffffffffffffffffffffffffffffffffffff1673ffffffffffffffffffffffffffffffffffffffff16815260200191505060405180910390f35b34801561012c57600080fd5b5061013561027e565b005b34801561014357600080fd5b5061014c6105af565b6040518080602001828103825283818151815260200191508051906020019060200280838360005b8381101561018f578082015181840152602081019050610174565b505050509050019250505060405180910390f35b3480156101af57600080fd5b506101b861063d565b6040518080602001828103825283818151815260200191508051906020019080838360005b838110156101f85780820151818401526020810190506101dd565b50505050905090810190601f1680156102255780820380516001836020036101000a031916815260200191505b509250505060405180910390f35b600360009054906101000a900473ffffffffffffffffffffffffffffffffffffffff1681565b6000809054906101000a900473ffffffffffffffffffffffffffffffffffffffff1681565b6001600360009054906101000a900473ffffffffffffffffffffffffffffffffffffffff1673ffffffffffffffffffffffffffffffffffffffff166370a08231336040518263ffffffff167c0100000000000000000000000000000000000000000000000000000000028152600401808273ffffffffffffffffffffffffffffffffffffffff1673ffffffffffffffffffffffffffffffffffffffff168152602001915050602060405180830381600087803b15801561033d57600080fd5b505af1158015610351573d6000803e3d6000fd5b505050506040513d602081101561036757600080fd5b8101908080519060200190929190505050101515156103ee576040517f08c379a00000000000000000000000000000000000000000000000000000000081526004018080602001828103825260078152602001807f552062726f6b650000000000000000000000000000000000000000000000000081525060200191505060405180910390fd5b600360009054906101000a900473ffffffffffffffffffffffffffffffffffffffff1673ffffffffffffffffffffffffffffffffffffffff1663b96a8af23360016040518363ffffffff167c0100000000000000000000000000000000000000000000000000000000028152600401808373ffffffffffffffffffffffffffffffffffffffff1673ffffffffffffffffffffffffffffffffffffffff16815260200182815260200192505050602060405180830381600087803b1580156104b457600080fd5b505af11580156104c8573d6000803e3d6000fd5b505050506040513d60208110156104de57600080fd5b81019080805190602001909291905050505060018060003373ffffffffffffffffffffffffffffffffffffffff1673ffffffffffffffffffffffffffffffffffffffff16815260200190815260200160002060006101000a81548160ff02191690831515021790555060023390806001815401808255809150509060018203906000526020600020016000909192909190916101000a81548173ffffffffffffffffffffffffffffffffffffffff021916908373ffffffffffffffffffffffffffffffffffffffff16021790555050565b6060600280548060200260200160405190810160405280929190818152602001828054801561063357602002820191906000526020600020905b8160009054906101000a900473ffffffffffffffffffffffffffffffffffffffff1673ffffffffffffffffffffffffffffffffffffffff16815260200190600101908083116105e9575b5050505050905090565b606060011515600160003373ffffffffffffffffffffffffffffffffffffffff1673ffffffffffffffffffffffffffffffffffffffff16815260200190815260200160002060009054906101000a900460ff161515141515610707576040517f08c379a000000000000000000000000000000000000000000000000000000000815260040180806020018281038252601c8152602001807f4e6f206572657320756e6f206465206c6f732067616e61646f7265730000000081525060200191505060405180910390fd5b60048054600181600116156101000203166002900480601f01602080910402602001604051908101604052809291908181526020018280546001816001161561010002031660029004801561079d5780601f106107725761010080835404028352916020019161079d565b820191906000526020600020905b81548152906001019060200180831161078057829003601f168201915b50505050509050905600a165627a7a72305820d6d9718e94b733dea95fd75944122f31113d705017b5e8d3ea636c37d0c5d2fa0029",
  "source": "//SPDX-License-Identifier: AFL-3.0\r\n\r\npragma solidity 0.4.23;\r\n\r\nimport \"../tokens/apuntarseCoin.sol\";\r\n\r\ncontract apuntarsePayment {\r\n\r\n    address public owner;\r\n    mapping(address => bool) winners;\r\n    address[] private winner_addresses;\r\n    apuntarseCoin public coin;\r\n    string private hashed_flag;\r\n\r\n    constructor(apuntarseCoin _coin) public {\r\n        owner = msg.sender;\r\n        coin = _coin;\r\n        hashed_flag = \"4567890p098765456a78s9fsijhgbsfa243\";\r\n\r\n    }\r\n\r\n    function pay_flag() public {\r\n        require(coin.balanceOf(msg.sender) >= 1, \"U broke\");\r\n        coin.payCoins(msg.sender, 1);\r\n\r\n        winners[msg.sender] = true;\r\n        winner_addresses.push(msg.sender);\r\n\r\n    }\r\n\r\n    function getFlagHash() public view returns (string memory) {\r\n        require(winners[msg.sender] == true, \"No eres uno de los ganadores\");\r\n        return hashed_flag;\r\n    }\r\n\r\n    function getWinners() public view returns (address[] memory) {\r\n        return winner_addresses;\r\n    }\r\n}",
  "sourcePath": "C:\\Users\\pablo\\Desktop\\CTFHackOnDapp\\contracts\\payment\\apuntarsePayment.sol",
  "compiler": {
    "name": "solc",
    "version": "0.4.23+commit.124ca40d.Emscripten.clang"
  },
  "schemaVersion": "3.4.11",
  "updatedAt": "2023-02-12T16:30:02.111Z",
  "networkType": "ethereum",
  "devdoc": {
    "methods": {}
  },
  "userdoc": {
    "methods": {}
  }
}