{
  "contractName": "casinoPayment",
  "abi": [
    {
      "inputs": [
        {
          "internalType": "contract casinoCoin",
          "name": "_coin",
          "type": "address"
        }
      ],
      "stateMutability": "nonpayable",
      "type": "constructor"
    },
    {
      "inputs": [],
      "name": "coin",
      "outputs": [
        {
          "internalType": "contract casinoCoin",
          "name": "",
          "type": "address"
        }
      ],
      "stateMutability": "view",
      "type": "function",
      "constant": true
    },
    {
      "inputs": [],
      "name": "owner",
      "outputs": [
        {
          "internalType": "address",
          "name": "",
          "type": "address"
        }
      ],
      "stateMutability": "view",
      "type": "function",
      "constant": true
    },
    {
      "inputs": [],
      "name": "pay_flag",
      "outputs": [],
      "stateMutability": "nonpayable",
      "type": "function"
    },
    {
      "inputs": [],
      "name": "getFlagHash",
      "outputs": [
        {
          "internalType": "string",
          "name": "",
          "type": "string"
        }
      ],
      "stateMutability": "view",
      "type": "function",
      "constant": true
    },
    {
      "inputs": [],
      "name": "getWinners",
      "outputs": [
        {
          "internalType": "address[]",
          "name": "",
          "type": "address[]"
        }
      ],
      "stateMutability": "view",
      "type": "function",
      "constant": true
    }
  ],
  "bytecode": "0x60806040523480156200001157600080fd5b5060405162000f4d38038062000f4d833981810160405281019062000037919062000168565b336000806101000a81548173ffffffffffffffffffffffffffffffffffffffff021916908373ffffffffffffffffffffffffffffffffffffffff16021790555080600360006101000a81548173ffffffffffffffffffffffffffffffffffffffff021916908373ffffffffffffffffffffffffffffffffffffffff16021790555060405180606001604052806023815260200162000f2a6023913960049081620000e2919062000414565b5050620004fb565b600080fd5b600073ffffffffffffffffffffffffffffffffffffffff82169050919050565b60006200011c82620000ef565b9050919050565b600062000130826200010f565b9050919050565b620001428162000123565b81146200014e57600080fd5b50565b600081519050620001628162000137565b92915050565b600060208284031215620001815762000180620000ea565b5b6000620001918482850162000151565b91505092915050565b600081519050919050565b7f4e487b7100000000000000000000000000000000000000000000000000000000600052604160045260246000fd5b7f4e487b7100000000000000000000000000000000000000000000000000000000600052602260045260246000fd5b600060028204905060018216806200021c57607f821691505b602082108103620002325762000231620001d4565b5b50919050565b60008190508160005260206000209050919050565b60006020601f8301049050919050565b600082821b905092915050565b6000600883026200029c7fffffffffffffffffffffffffffffffffffffffffffffffffffffffffffffffff826200025d565b620002a886836200025d565b95508019841693508086168417925050509392505050565b6000819050919050565b6000819050919050565b6000620002f5620002ef620002e984620002c0565b620002ca565b620002c0565b9050919050565b6000819050919050565b6200031183620002d4565b620003296200032082620002fc565b8484546200026a565b825550505050565b600090565b6200034062000331565b6200034d81848462000306565b505050565b5b8181101562000375576200036960008262000336565b60018101905062000353565b5050565b601f821115620003c4576200038e8162000238565b62000399846200024d565b81016020851015620003a9578190505b620003c1620003b8856200024d565b83018262000352565b50505b505050565b600082821c905092915050565b6000620003e960001984600802620003c9565b1980831691505092915050565b6000620004048383620003d6565b9150826002028217905092915050565b6200041f826200019a565b67ffffffffffffffff8111156200043b576200043a620001a5565b5b62000447825462000203565b6200045482828562000379565b600060209050601f8311600181146200048c576000841562000477578287015190505b620004838582620003f6565b865550620004f3565b601f1984166200049c8662000238565b60005b82811015620004c6578489015182556001820191506020850194506020810190506200049f565b86831015620004e65784890151620004e2601f891682620003d6565b8355505b6001600288020188555050505b505050505050565b610a1f806200050b6000396000f3fe608060405234801561001057600080fd5b50600436106100575760003560e01c806311df99951461005c5780638da5cb5b1461007a578063ce95240a14610098578063df15c37e146100a2578063e87045b3146100c0575b600080fd5b6100646100de565b6040516100719190610597565b60405180910390f35b610082610104565b60405161008f91906105d3565b60405180910390f35b6100a0610128565b005b6100aa610365565b6040516100b791906106ac565b60405180910390f35b6100c86103f3565b6040516100d5919061075e565b60405180910390f35b600360009054906101000a900473ffffffffffffffffffffffffffffffffffffffff1681565b60008054906101000a900473ffffffffffffffffffffffffffffffffffffffff1681565b6002600360009054906101000a900473ffffffffffffffffffffffffffffffffffffffff1673ffffffffffffffffffffffffffffffffffffffff166370a08231336040518263ffffffff1660e01b815260040161018591906105d3565b602060405180830381865afa1580156101a2573d6000803e3d6000fd5b505050506040513d601f19601f820116820180604052508101906101c691906107bb565b1015610207576040517f08c379a00000000000000000000000000000000000000000000000000000000081526004016101fe90610834565b60405180910390fd5b600360009054906101000a900473ffffffffffffffffffffffffffffffffffffffff1673ffffffffffffffffffffffffffffffffffffffff1663b96a8af23360026040518363ffffffff1660e01b815260040161026592919061088f565b6020604051808303816000875af1158015610284573d6000803e3d6000fd5b505050506040513d601f19601f820116820180604052508101906102a891906108f0565b5060018060003373ffffffffffffffffffffffffffffffffffffffff1673ffffffffffffffffffffffffffffffffffffffff16815260200190815260200160002060006101000a81548160ff0219169083151502179055506002339080600181540180825580915050600190039060005260206000200160009091909190916101000a81548173ffffffffffffffffffffffffffffffffffffffff021916908373ffffffffffffffffffffffffffffffffffffffff160217905550565b606060028054806020026020016040519081016040528092919081815260200182805480156103e957602002820191906000526020600020905b8160009054906101000a900473ffffffffffffffffffffffffffffffffffffffff1673ffffffffffffffffffffffffffffffffffffffff168152602001906001019080831161039f575b5050505050905090565b606060011515600160003373ffffffffffffffffffffffffffffffffffffffff1673ffffffffffffffffffffffffffffffffffffffff16815260200190815260200160002060009054906101000a900460ff16151514610488576040517f08c379a000000000000000000000000000000000000000000000000000000000815260040161047f90610969565b60405180910390fd5b60048054610495906109b8565b80601f01602080910402602001604051908101604052809291908181526020018280546104c1906109b8565b801561050e5780601f106104e35761010080835404028352916020019161050e565b820191906000526020600020905b8154815290600101906020018083116104f157829003601f168201915b5050505050905090565b600073ffffffffffffffffffffffffffffffffffffffff82169050919050565b6000819050919050565b600061055d61055861055384610518565b610538565b610518565b9050919050565b600061056f82610542565b9050919050565b600061058182610564565b9050919050565b61059181610576565b82525050565b60006020820190506105ac6000830184610588565b92915050565b60006105bd82610518565b9050919050565b6105cd816105b2565b82525050565b60006020820190506105e860008301846105c4565b92915050565b600081519050919050565b600082825260208201905092915050565b6000819050602082019050919050565b610623816105b2565b82525050565b6000610635838361061a565b60208301905092915050565b6000602082019050919050565b6000610659826105ee565b61066381856105f9565b935061066e8361060a565b8060005b8381101561069f5781516106868882610629565b975061069183610641565b925050600181019050610672565b5085935050505092915050565b600060208201905081810360008301526106c6818461064e565b905092915050565b600081519050919050565b600082825260208201905092915050565b60005b838110156107085780820151818401526020810190506106ed565b60008484015250505050565b6000601f19601f8301169050919050565b6000610730826106ce565b61073a81856106d9565b935061074a8185602086016106ea565b61075381610714565b840191505092915050565b600060208201905081810360008301526107788184610725565b905092915050565b600080fd5b6000819050919050565b61079881610785565b81146107a357600080fd5b50565b6000815190506107b58161078f565b92915050565b6000602082840312156107d1576107d0610780565b5b60006107df848285016107a6565b91505092915050565b7f552062726f6b6500000000000000000000000000000000000000000000000000600082015250565b600061081e6007836106d9565b9150610829826107e8565b602082019050919050565b6000602082019050818103600083015261084d81610811565b9050919050565b6000819050919050565b600061087961087461086f84610854565b610538565b610785565b9050919050565b6108898161085e565b82525050565b60006040820190506108a460008301856105c4565b6108b16020830184610880565b9392505050565b60008115159050919050565b6108cd816108b8565b81146108d857600080fd5b50565b6000815190506108ea816108c4565b92915050565b60006020828403121561090657610905610780565b5b6000610914848285016108db565b91505092915050565b7f4e6f206572657320756e6f206465206c6f732067616e61646f72657300000000600082015250565b6000610953601c836106d9565b915061095e8261091d565b602082019050919050565b6000602082019050818103600083015261098281610946565b9050919050565b7f4e487b7100000000000000000000000000000000000000000000000000000000600052602260045260246000fd5b600060028204905060018216806109d057607f821691505b6020821081036109e3576109e2610989565b5b5091905056fea2646970667358221220fc90097be72ebc7441f818a56163de7812edaaa88ba9f7f8505a5a414a3dfe3264736f6c634300081200333233347537386f39373836373536347133326577716465736674687937756936383637",
  "immutableReferences": {},
  "source": "// SPDX-License-Identifier: AFL-3.0\r\n\r\npragma solidity >=0.8.13;\r\n\r\nimport \"../tokens/casinoCoin.sol\";\r\n\r\ncontract casinoPayment {\r\n\r\n    address public owner;\r\n    mapping(address => bool) winners;\r\n    address[] private winner_addresses;\r\n\r\n    casinoCoin public coin;\r\n    string private hashed_flag;\r\n\r\n    constructor(casinoCoin _coin) {\r\n        owner = msg.sender;\r\n        coin = _coin;\r\n        hashed_flag = \"234u78o97867564q32ewqdesfthy7ui6867\";\r\n\r\n    }\r\n\r\n    function pay_flag() public {\r\n        require(coin.balanceOf(msg.sender) >= 2, \"U broke\");\r\n        coin.payCoins(msg.sender, 2);\r\n\r\n        winners[msg.sender] = true;\r\n        winner_addresses.push(msg.sender);\r\n    }\r\n\r\n    function getFlagHash() public view returns (string memory) {\r\n        require(winners[msg.sender] == true, \"No eres uno de los ganadores\");\r\n        return hashed_flag;\r\n    }\r\n\r\n    function getWinners() public view returns (address[] memory) {\r\n        return winner_addresses;\r\n    }\r\n}",
  "sourcePath": "C:\\Users\\pablo\\Desktop\\CTFHackOnDapp\\contracts\\payment\\casinoPayment.sol",
  "compiler": {
    "name": "solc",
    "version": "0.8.18+commit.87f61d96.Emscripten.clang"
  },
  "schemaVersion": "3.4.11",
  "updatedAt": "2023-02-12T16:30:02.115Z",
  "networkType": "ethereum",
  "devdoc": {
    "kind": "dev",
    "methods": {},
    "version": 1
  },
  "userdoc": {
    "kind": "user",
    "methods": {},
    "version": 1
  }
}