{
  "contractName": "casinoPayment",
  "abi": [
    {
      "inputs": [
        {
          "internalType": "contract casinoCoin",
          "name": "_coin",
          "type": "address"
        }
      ],
      "stateMutability": "nonpayable",
      "type": "constructor"
    },
    {
      "inputs": [],
      "name": "coin",
      "outputs": [
        {
          "internalType": "contract casinoCoin",
          "name": "",
          "type": "address"
        }
      ],
      "stateMutability": "view",
      "type": "function",
      "constant": true
    },
    {
      "inputs": [],
      "name": "owner",
      "outputs": [
        {
          "internalType": "address",
          "name": "",
          "type": "address"
        }
      ],
      "stateMutability": "view",
      "type": "function",
      "constant": true
    },
    {
      "inputs": [],
      "name": "pay_flag",
      "outputs": [],
      "stateMutability": "nonpayable",
      "type": "function"
    },
    {
      "inputs": [],
      "name": "getFlagHash",
      "outputs": [
        {
          "internalType": "string",
          "name": "",
          "type": "string"
        }
      ],
      "stateMutability": "view",
      "type": "function",
      "constant": true
    }
  ],
  "bytecode": "0x60806040523480156200001157600080fd5b5060405162000d5238038062000d52833981810160405281019062000037919062000168565b336000806101000a81548173ffffffffffffffffffffffffffffffffffffffff021916908373ffffffffffffffffffffffffffffffffffffffff16021790555080600260006101000a81548173ffffffffffffffffffffffffffffffffffffffff021916908373ffffffffffffffffffffffffffffffffffffffff16021790555060405180606001604052806023815260200162000d2f6023913960039081620000e2919062000414565b5050620004fb565b600080fd5b600073ffffffffffffffffffffffffffffffffffffffff82169050919050565b60006200011c82620000ef565b9050919050565b600062000130826200010f565b9050919050565b620001428162000123565b81146200014e57600080fd5b50565b600081519050620001628162000137565b92915050565b600060208284031215620001815762000180620000ea565b5b6000620001918482850162000151565b91505092915050565b600081519050919050565b7f4e487b7100000000000000000000000000000000000000000000000000000000600052604160045260246000fd5b7f4e487b7100000000000000000000000000000000000000000000000000000000600052602260045260246000fd5b600060028204905060018216806200021c57607f821691505b602082108103620002325762000231620001d4565b5b50919050565b60008190508160005260206000209050919050565b60006020601f8301049050919050565b600082821b905092915050565b6000600883026200029c7fffffffffffffffffffffffffffffffffffffffffffffffffffffffffffffffff826200025d565b620002a886836200025d565b95508019841693508086168417925050509392505050565b6000819050919050565b6000819050919050565b6000620002f5620002ef620002e984620002c0565b620002ca565b620002c0565b9050919050565b6000819050919050565b6200031183620002d4565b620003296200032082620002fc565b8484546200026a565b825550505050565b600090565b6200034062000331565b6200034d81848462000306565b505050565b5b8181101562000375576200036960008262000336565b60018101905062000353565b5050565b601f821115620003c4576200038e8162000238565b62000399846200024d565b81016020851015620003a9578190505b620003c1620003b8856200024d565b83018262000352565b50505b505050565b600082821c905092915050565b6000620003e960001984600802620003c9565b1980831691505092915050565b6000620004048383620003d6565b9150826002028217905092915050565b6200041f826200019a565b67ffffffffffffffff8111156200043b576200043a620001a5565b5b62000447825462000203565b6200045482828562000379565b600060209050601f8311600181146200048c576000841562000477578287015190505b620004838582620003f6565b865550620004f3565b601f1984166200049c8662000238565b60005b82811015620004c6578489015182556001820191506020850194506020810190506200049f565b86831015620004e65784890151620004e2601f891682620003d6565b8355505b6001600288020188555050505b505050505050565b610824806200050b6000396000f3fe608060405234801561001057600080fd5b506004361061004c5760003560e01c806311df9995146100515780638da5cb5b1461006f578063ce95240a1461008d578063e87045b314610097575b600080fd5b6100596100b5565b604051610066919061047c565b60405180910390f35b6100776100db565b60405161008491906104b8565b60405180910390f35b6100956100ff565b005b61009f6102d8565b6040516100ac9190610563565b60405180910390f35b600260009054906101000a900473ffffffffffffffffffffffffffffffffffffffff1681565b60008054906101000a900473ffffffffffffffffffffffffffffffffffffffff1681565b60028060009054906101000a900473ffffffffffffffffffffffffffffffffffffffff1673ffffffffffffffffffffffffffffffffffffffff166370a08231336040518263ffffffff1660e01b815260040161015b91906104b8565b602060405180830381865afa158015610178573d6000803e3d6000fd5b505050506040513d601f19601f8201168201806040525081019061019c91906105c0565b10156101dd576040517f08c379a00000000000000000000000000000000000000000000000000000000081526004016101d490610639565b60405180910390fd5b600260009054906101000a900473ffffffffffffffffffffffffffffffffffffffff1673ffffffffffffffffffffffffffffffffffffffff1663b96a8af23360026040518363ffffffff1660e01b815260040161023b929190610694565b6020604051808303816000875af115801561025a573d6000803e3d6000fd5b505050506040513d601f19601f8201168201806040525081019061027e91906106f5565b5060018060003373ffffffffffffffffffffffffffffffffffffffff1673ffffffffffffffffffffffffffffffffffffffff16815260200190815260200160002060006101000a81548160ff021916908315150217905550565b606060011515600160003373ffffffffffffffffffffffffffffffffffffffff1673ffffffffffffffffffffffffffffffffffffffff16815260200190815260200160002060009054906101000a900460ff1615151461036d576040517f08c379a00000000000000000000000000000000000000000000000000000000081526004016103649061076e565b60405180910390fd5b6003805461037a906107bd565b80601f01602080910402602001604051908101604052809291908181526020018280546103a6906107bd565b80156103f35780601f106103c8576101008083540402835291602001916103f3565b820191906000526020600020905b8154815290600101906020018083116103d657829003601f168201915b5050505050905090565b600073ffffffffffffffffffffffffffffffffffffffff82169050919050565b6000819050919050565b600061044261043d610438846103fd565b61041d565b6103fd565b9050919050565b600061045482610427565b9050919050565b600061046682610449565b9050919050565b6104768161045b565b82525050565b6000602082019050610491600083018461046d565b92915050565b60006104a2826103fd565b9050919050565b6104b281610497565b82525050565b60006020820190506104cd60008301846104a9565b92915050565b600081519050919050565b600082825260208201905092915050565b60005b8381101561050d5780820151818401526020810190506104f2565b60008484015250505050565b6000601f19601f8301169050919050565b6000610535826104d3565b61053f81856104de565b935061054f8185602086016104ef565b61055881610519565b840191505092915050565b6000602082019050818103600083015261057d818461052a565b905092915050565b600080fd5b6000819050919050565b61059d8161058a565b81146105a857600080fd5b50565b6000815190506105ba81610594565b92915050565b6000602082840312156105d6576105d5610585565b5b60006105e4848285016105ab565b91505092915050565b7f552062726f6b6500000000000000000000000000000000000000000000000000600082015250565b60006106236007836104de565b915061062e826105ed565b602082019050919050565b6000602082019050818103600083015261065281610616565b9050919050565b6000819050919050565b600061067e61067961067484610659565b61041d565b61058a565b9050919050565b61068e81610663565b82525050565b60006040820190506106a960008301856104a9565b6106b66020830184610685565b9392505050565b60008115159050919050565b6106d2816106bd565b81146106dd57600080fd5b50565b6000815190506106ef816106c9565b92915050565b60006020828403121561070b5761070a610585565b5b6000610719848285016106e0565b91505092915050565b7f4e6f206572657320756e6f206465206c6f732067616e61646f72657300000000600082015250565b6000610758601c836104de565b915061076382610722565b602082019050919050565b600060208201905081810360008301526107878161074b565b9050919050565b7f4e487b7100000000000000000000000000000000000000000000000000000000600052602260045260246000fd5b600060028204905060018216806107d557607f821691505b6020821081036107e8576107e761078e565b5b5091905056fea26469706673582212203be65d1367d7c41d27270610ec518dbd92de1e57ab5179b5f67b4c24cacc188e64736f6c634300081200333233347537386f39373836373536347133326577716465736674687937756936383637",
  "immutableReferences": {},
  "source": "// SPDX-License-Identifier: AFL-3.0\r\n\r\npragma solidity >=0.8.13;\r\n\r\nimport \"../tokens/casinoCoin.sol\";\r\n\r\ncontract casinoPayment {\r\n\r\n    address public owner;\r\n    mapping(address => bool) winners;\r\n    casinoCoin public coin;\r\n    string private hashed_flag;\r\n\r\n    constructor(casinoCoin _coin) {\r\n        owner = msg.sender;\r\n        coin = _coin;\r\n        hashed_flag = \"234u78o97867564q32ewqdesfthy7ui6867\";\r\n\r\n    }\r\n\r\n    function pay_flag() public {\r\n        require(coin.balanceOf(msg.sender) >= 2, \"U broke\");\r\n        coin.payCoins(msg.sender, 2);\r\n\r\n        winners[msg.sender] = true;\r\n    }\r\n\r\n    function getFlagHash() public view returns (string memory) {\r\n        require(winners[msg.sender] == true, \"No eres uno de los ganadores\");\r\n        return hashed_flag;\r\n    }\r\n}",
  "sourcePath": "C:\\Users\\pablo\\Desktop\\CTFHackOnDapp\\contracts\\payment\\casinoPayment.sol",
  "compiler": {
    "name": "solc",
    "version": "0.8.18+commit.87f61d96.Emscripten.clang"
  },
  "schemaVersion": "3.4.11",
  "updatedAt": "2023-02-11T13:01:15.148Z",
  "networkType": "ethereum",
  "devdoc": {
    "kind": "dev",
    "methods": {},
    "version": 1
  },
  "userdoc": {
    "kind": "user",
    "methods": {},
    "version": 1
  }
}