{
  "contractName": "casino",
  "abi": [
    {
      "inputs": [
        {
          "internalType": "contract casinoCoin",
          "name": "_coin",
          "type": "address"
        }
      ],
      "stateMutability": "nonpayable",
      "type": "constructor"
    },
    {
      "inputs": [],
      "name": "coin",
      "outputs": [
        {
          "internalType": "contract casinoCoin",
          "name": "",
          "type": "address"
        }
      ],
      "stateMutability": "view",
      "type": "function"
    },
    {
      "inputs": [],
      "name": "owner",
      "outputs": [
        {
          "internalType": "address",
          "name": "",
          "type": "address"
        }
      ],
      "stateMutability": "view",
      "type": "function"
    },
    {
      "inputs": [],
      "name": "seed",
      "outputs": [
        {
          "internalType": "bytes32",
          "name": "",
          "type": "bytes32"
        }
      ],
      "stateMutability": "view",
      "type": "function"
    },
    {
      "inputs": [
        {
          "internalType": "uint8",
          "name": "x",
          "type": "uint8"
        },
        {
          "internalType": "uint256",
          "name": "bet",
          "type": "uint256"
        }
      ],
      "name": "roulette",
      "outputs": [
        {
          "internalType": "bool",
          "name": "",
          "type": "bool"
        }
      ],
      "stateMutability": "nonpayable",
      "type": "function"
    },
    {
      "inputs": [
        {
          "internalType": "uint8",
          "name": "x",
          "type": "uint8"
        },
        {
          "internalType": "uint256",
          "name": "bet",
          "type": "uint256"
        }
      ],
      "name": "dice",
      "outputs": [
        {
          "internalType": "bool",
          "name": "",
          "type": "bool"
        }
      ],
      "stateMutability": "nonpayable",
      "type": "function"
    },
    {
      "inputs": [
        {
          "internalType": "uint256",
          "name": "_guess",
          "type": "uint256"
        }
      ],
      "name": "lotto",
      "outputs": [],
      "stateMutability": "nonpayable",
      "type": "function"
    },
    {
      "inputs": [],
      "name": "lotto_validator",
      "outputs": [
        {
          "internalType": "bool",
          "name": "",
          "type": "bool"
        }
      ],
      "stateMutability": "nonpayable",
      "type": "function"
    },
    {
      "inputs": [],
      "name": "addFunds",
      "outputs": [],
      "stateMutability": "nonpayable",
      "type": "function"
    },
    {
      "inputs": [
        {
          "internalType": "uint256",
          "name": "_funds",
          "type": "uint256"
        }
      ],
      "name": "retrieveFundsValidator",
      "outputs": [
        {
          "internalType": "bool",
          "name": "",
          "type": "bool"
        }
      ],
      "stateMutability": "nonpayable",
      "type": "function"
    },
    {
      "inputs": [
        {
          "internalType": "uint256",
          "name": "_funds",
          "type": "uint256"
        }
      ],
      "name": "retrieveFunds",
      "outputs": [
        {
          "internalType": "bool",
          "name": "",
          "type": "bool"
        }
      ],
      "stateMutability": "nonpayable",
      "type": "function"
    },
    {
      "inputs": [],
      "name": "getConsecutiveWins",
      "outputs": [
        {
          "internalType": "uint256",
          "name": "",
          "type": "uint256"
        }
      ],
      "stateMutability": "view",
      "type": "function"
    },
    {
      "inputs": [],
      "name": "getContractCoins",
      "outputs": [
        {
          "internalType": "uint256",
          "name": "",
          "type": "uint256"
        }
      ],
      "stateMutability": "view",
      "type": "function"
    },
    {
      "inputs": [],
      "name": "getCoins",
      "outputs": [
        {
          "internalType": "uint256",
          "name": "",
          "type": "uint256"
        }
      ],
      "stateMutability": "view",
      "type": "function"
    },
    {
      "inputs": [],
      "name": "getFunds",
      "outputs": [
        {
          "internalType": "uint256",
          "name": "",
          "type": "uint256"
        }
      ],
      "stateMutability": "view",
      "type": "function"
    },
    {
      "inputs": [],
      "name": "apuntarse",
      "outputs": [],
      "stateMutability": "nonpayable",
      "type": "function"
    }
  ],
  "bytecode": "0x60806040523480156200001157600080fd5b506040516200189138038062001891833981810160405281019062000037919062000240565b336000806101000a81548173ffffffffffffffffffffffffffffffffffffffff021916908373ffffffffffffffffffffffffffffffffffffffff1602179055506001600360003373ffffffffffffffffffffffffffffffffffffffff1673ffffffffffffffffffffffffffffffffffffffff16815260200190815260200160002060006101000a81548160ff0219169083151502179055507f50736575646f5f6172655f73616675000000000000000000000000000000000060028190555080600160006101000a81548173ffffffffffffffffffffffffffffffffffffffff021916908373ffffffffffffffffffffffffffffffffffffffff160217905550600160009054906101000a900473ffffffffffffffffffffffffffffffffffffffff1673ffffffffffffffffffffffffffffffffffffffff16631249c58b6040518163ffffffff1660e01b8152600401600060405180830381600087803b158015620001a257600080fd5b505af1158015620001b7573d6000803e3d6000fd5b505050505062000272565b600080fd5b600073ffffffffffffffffffffffffffffffffffffffff82169050919050565b6000620001f482620001c7565b9050919050565b60006200020882620001e7565b9050919050565b6200021a81620001fb565b81146200022657600080fd5b50565b6000815190506200023a816200020f565b92915050565b600060208284031215620002595762000258620001c2565b5b6000620002698482850162000229565b91505092915050565b61160f80620002826000396000f3fe608060405234801561001057600080fd5b50600436106100f55760003560e01c80638da5cb5b11610097578063dd11a59811610066578063dd11a59814610240578063dd1a71461461025e578063f45837931461028e578063fc41491e146102aa576100f5565b80638da5cb5b146101dc5780639fbe138c146101fa578063a26759cb14610218578063a601e11814610222576100f5565b80633968f2af116100d35780633968f2af14610140578063423d62d1146101705780634d9b3735146101a05780637d94792a146101be576100f5565b806311df9995146100fa57806313c390ef146101185780632f90284714610136575b600080fd5b6101026102da565b60405161010f9190610e48565b60405180910390f35b610120610300565b60405161012d9190610e7c565b60405180910390f35b61013e6103a3565b005b61015a60048036038101906101559190610f01565b6103fd565b6040516101679190610f5c565b60405180910390f35b61018a60048036038101906101859190610f77565b610500565b6040516101979190610f5c565b60405180910390f35b6101a861068d565b6040516101b59190610e7c565b60405180910390f35b6101c66106d4565b6040516101d39190610fbd565b60405180910390f35b6101e46106da565b6040516101f19190610ff9565b60405180910390f35b6102026106fe565b60405161020f9190610e7c565b60405180910390f35b61022061074a565b005b61022a6107a3565b6040516102379190610f5c565b60405180910390f35b61024861095c565b6040516102559190610e7c565b60405180910390f35b61027860048036038101906102739190610f01565b6109ff565b6040516102859190610f5c565b60405180910390f35b6102a860048036038101906102a39190610f77565b610ab0565b005b6102c460048036038101906102bf9190610f77565b610bc1565b6040516102d19190610f5c565b60405180910390f35b600160009054906101000a900473ffffffffffffffffffffffffffffffffffffffff1681565b6000600160009054906101000a900473ffffffffffffffffffffffffffffffffffffffff1673ffffffffffffffffffffffffffffffffffffffff166370a08231336040518263ffffffff1660e01b815260040161035d9190610ff9565b602060405180830381865afa15801561037a573d6000803e3d6000fd5b505050506040513d601f19601f8201168201806040525081019061039e9190611029565b905090565b6001600360003373ffffffffffffffffffffffffffffffffffffffff1673ffffffffffffffffffffffffffffffffffffffff16815260200190815260200160002060006101000a81548160ff021916908315150217905550565b6000806006426040516020016104139190611077565b6040516020818303038152906040528051906020012060001c61043691906110c1565b905060078460ff161061047e576040517f08c379a00000000000000000000000000000000000000000000000000000000081526004016104759061114f565b60405180910390fd5b8360ff1681036104f457600683610495919061119e565b600560003373ffffffffffffffffffffffffffffffffffffffff1673ffffffffffffffffffffffffffffffffffffffff16815260200190815260200160002060008282546104e391906111e0565b9250508190555060019150506104fa565b60009150505b92915050565b60008082600560003373ffffffffffffffffffffffffffffffffffffffff1673ffffffffffffffffffffffffffffffffffffffff16815260200190815260200160002060008282546105529190611214565b9250508190551015610599576040517f08c379a000000000000000000000000000000000000000000000000000000000815260040161059090611294565b60405180910390fd5b3073ffffffffffffffffffffffffffffffffffffffff163373ffffffffffffffffffffffffffffffffffffffff1603610607576040517f08c379a00000000000000000000000000000000000000000000000000000000081526004016105fe90611300565b60405180910390fd5b3073ffffffffffffffffffffffffffffffffffffffff1663fc41491e836040518263ffffffff1660e01b81526004016106409190610e7c565b6020604051808303816000875af115801561065f573d6000803e3d6000fd5b505050506040513d601f19601f82011682018060405250810190610683919061134c565b5060019050919050565b6000600560003373ffffffffffffffffffffffffffffffffffffffff1673ffffffffffffffffffffffffffffffffffffffff16815260200190815260200160002054905090565b60025481565b60008054906101000a900473ffffffffffffffffffffffffffffffffffffffff1681565b600080600460003373ffffffffffffffffffffffffffffffffffffffff1673ffffffffffffffffffffffffffffffffffffffff1681526020019081526020016000205490508091505090565b6064600560003373ffffffffffffffffffffffffffffffffffffffff1673ffffffffffffffffffffffffffffffffffffffff168152602001908152602001600020600082825461079a91906111e0565b92505081905550565b60006001600460003373ffffffffffffffffffffffffffffffffffffffff1673ffffffffffffffffffffffffffffffffffffffff1681526020019081526020016000205411610827576040517f08c379a000000000000000000000000000000000000000000000000000000000815260040161081e906113eb565b60405180910390fd5b600360003373ffffffffffffffffffffffffffffffffffffffff1673ffffffffffffffffffffffffffffffffffffffff16815260200190815260200160002060009054906101000a900460ff166108b3576040517f08c379a00000000000000000000000000000000000000000000000000000000081526004016108aa90611457565b60405180910390fd5b600160009054906101000a900473ffffffffffffffffffffffffffffffffffffffff1673ffffffffffffffffffffffffffffffffffffffff166390b98a113360016040518363ffffffff1660e01b81526004016109119291906114b2565b6020604051808303816000875af1158015610930573d6000803e3d6000fd5b505050506040513d601f19601f82011682018060405250810190610954919061134c565b506001905090565b6000600160009054906101000a900473ffffffffffffffffffffffffffffffffffffffff1673ffffffffffffffffffffffffffffffffffffffff166370a08231306040518263ffffffff1660e01b81526004016109b99190610ff9565b602060405180830381865afa1580156109d6573d6000803e3d6000fd5b505050506040513d601f19601f820116820180604052508101906109fa9190611029565b905090565b60008042604051602001610a139190611077565b6040516020818303038152906040528051906020012060001c90508360ff168103610aa457602383610a45919061119e565b600560003373ffffffffffffffffffffffffffffffffffffffff1673ffffffffffffffffffffffffffffffffffffffff1681526020019081526020016000206000828254610a9391906111e0565b925050819055506001915050610aaa565b60009150505b92915050565b6000604051602001610ac190611532565b6040516020818303038152906040528051906020012060001c9050808203610b77576001600460003373ffffffffffffffffffffffffffffffffffffffff1673ffffffffffffffffffffffffffffffffffffffff16815260200190815260200160002054610b2f91906111e0565b600460003373ffffffffffffffffffffffffffffffffffffffff1673ffffffffffffffffffffffffffffffffffffffff16815260200190815260200160002081905550610bbd565b6000600460003373ffffffffffffffffffffffffffffffffffffffff1673ffffffffffffffffffffffffffffffffffffffff168152602001908152602001600020819055505b5050565b60008082600560003273ffffffffffffffffffffffffffffffffffffffff1673ffffffffffffffffffffffffffffffffffffffff1681526020019081526020016000206000828254610c139190611214565b9250508190551015610c5a576040517f08c379a0000000000000000000000000000000000000000000000000000000008152600401610c5190611294565b60405180910390fd5b81600560003273ffffffffffffffffffffffffffffffffffffffff1673ffffffffffffffffffffffffffffffffffffffff1681526020019081526020016000206000828254610ca99190611214565b925050819055503073ffffffffffffffffffffffffffffffffffffffff163373ffffffffffffffffffffffffffffffffffffffff1614610d1e576040517f08c379a0000000000000000000000000000000000000000000000000000000008152600401610d15906115b9565b60405180910390fd5b600160009054906101000a900473ffffffffffffffffffffffffffffffffffffffff1673ffffffffffffffffffffffffffffffffffffffff166390b98a113260016040518363ffffffff1660e01b8152600401610d7c9291906114b2565b6020604051808303816000875af1158015610d9b573d6000803e3d6000fd5b505050506040513d601f19601f82011682018060405250810190610dbf919061134c565b5060019050919050565b600073ffffffffffffffffffffffffffffffffffffffff82169050919050565b6000819050919050565b6000610e0e610e09610e0484610dc9565b610de9565b610dc9565b9050919050565b6000610e2082610df3565b9050919050565b6000610e3282610e15565b9050919050565b610e4281610e27565b82525050565b6000602082019050610e5d6000830184610e39565b92915050565b6000819050919050565b610e7681610e63565b82525050565b6000602082019050610e916000830184610e6d565b92915050565b600080fd5b600060ff82169050919050565b610eb281610e9c565b8114610ebd57600080fd5b50565b600081359050610ecf81610ea9565b92915050565b610ede81610e63565b8114610ee957600080fd5b50565b600081359050610efb81610ed5565b92915050565b60008060408385031215610f1857610f17610e97565b5b6000610f2685828601610ec0565b9250506020610f3785828601610eec565b9150509250929050565b60008115159050919050565b610f5681610f41565b82525050565b6000602082019050610f716000830184610f4d565b92915050565b600060208284031215610f8d57610f8c610e97565b5b6000610f9b84828501610eec565b91505092915050565b6000819050919050565b610fb781610fa4565b82525050565b6000602082019050610fd26000830184610fae565b92915050565b6000610fe382610dc9565b9050919050565b610ff381610fd8565b82525050565b600060208201905061100e6000830184610fea565b92915050565b60008151905061102381610ed5565b92915050565b60006020828403121561103f5761103e610e97565b5b600061104d84828501611014565b91505092915050565b6000819050919050565b61107161106c82610e63565b611056565b82525050565b60006110838284611060565b60208201915081905092915050565b7f4e487b7100000000000000000000000000000000000000000000000000000000600052601260045260246000fd5b60006110cc82610e63565b91506110d783610e63565b9250826110e7576110e6611092565b5b828206905092915050565b600082825260208201905092915050565b7f4c6f73206461646f7320736f6c6f207469656e656e2036206e756d65726f7300600082015250565b6000611139601f836110f2565b915061114482611103565b602082019050919050565b600060208201905081810360008301526111688161112c565b9050919050565b7f4e487b7100000000000000000000000000000000000000000000000000000000600052601160045260246000fd5b60006111a982610e63565b91506111b483610e63565b92508282026111c281610e63565b915082820484148315176111d9576111d861116f565b5b5092915050565b60006111eb82610e63565b91506111f683610e63565b925082820190508082111561120e5761120d61116f565b5b92915050565b600061121f82610e63565b915061122a83610e63565b92508282039050818111156112425761124161116f565b5b92915050565b7f4e6f207469656e657320737566696369656e74657320666f6e646f7300000000600082015250565b600061127e601c836110f2565b915061128982611248565b602082019050919050565b600060208201905081810360008301526112ad81611271565b9050919050565b7f3200000000000000000000000000000000000000000000000000000000000000600082015250565b60006112ea6001836110f2565b91506112f5826112b4565b602082019050919050565b60006020820190508181036000830152611319816112dd565b9050919050565b61132981610f41565b811461133457600080fd5b50565b60008151905061134681611320565b92915050565b60006020828403121561136257611361610e97565b5b600061137084828501611337565b91505092915050565b7f4e6f206861732067616e61646f206c617320737566696369656e74657320706160008201527f7274696461730000000000000000000000000000000000000000000000000000602082015250565b60006113d56026836110f2565b91506113e082611379565b604082019050919050565b60006020820190508181036000830152611404816113c8565b9050919050565b7f4e6f206573746173207265676973747261646f00000000000000000000000000600082015250565b60006114416013836110f2565b915061144c8261140b565b602082019050919050565b6000602082019050818103600083015261147081611434565b9050919050565b6000819050919050565b600061149c61149761149284611477565b610de9565b610e63565b9050919050565b6114ac81611481565b82525050565b60006040820190506114c76000830185610fea565b6114d460208301846114a3565b9392505050565b600081905092915050565b7f50736575646f5f6172655f736166750000000000000000000000000000000000600082015250565b600061151c600f836114db565b9150611527826114e6565b600f82019050919050565b600061153d8261150f565b9150819050919050565b7f4e6f206c6120726574697261646120736f6c6f206573206175746f72697a616460008201527f6120706f7220656c20636173696e6f0000000000000000000000000000000000602082015250565b60006115a3602f836110f2565b91506115ae82611547565b604082019050919050565b600060208201905081810360008301526115d281611596565b905091905056fea26469706673582212207a5184cfc317e1ef8521744b6e54994c8f0db3877269e1c3c9218f57451d527064736f6c63430008120033",
  "immutableReferences": {},
  "source": "//SPDX-License-Identifier: AFL-3.0\r\n\r\npragma solidity ^0.8.13;\r\n\r\nimport \"../tokens/casinoCoin.sol\";\r\n\r\ncontract casino {\r\n\r\n    address public owner;\r\n    casinoCoin public coin;\r\n    bytes32 public seed;\r\n\r\n    mapping(address => bool) participantes;\r\n    mapping(address => uint256) consecutive_wins;\r\n    mapping(address => uint256) funds;\r\n\r\n    constructor(casinoCoin _coin) {\r\n        owner = msg.sender;\r\n        participantes[msg.sender] = true;\r\n        seed = \"Pseudo_are_safu\";\r\n        \r\n        coin = _coin;\r\n        coin.mint();\r\n        \r\n    }\r\n\r\n    function roulette(uint8 x, uint256 bet) public returns (bool) {\r\n        \r\n        uint256 random;\r\n        random = uint256(keccak256(abi.encodePacked(block.timestamp)));\r\n        if (random == x){\r\n            funds[msg.sender] += bet * 35;\r\n            return true;\r\n        }\r\n        return false;\r\n        \r\n    }\r\n\r\n    function dice(uint8 x, uint256 bet) public returns (bool) {\r\n\r\n        uint256 random;\r\n        random = uint256(keccak256(abi.encodePacked(block.timestamp))) % 6;\r\n\r\n        require(x < 7, \"Los dados solo tienen 6 numeros\");\r\n        if (random == x){\r\n            funds[msg.sender] += bet * 6;    \r\n            return true;\r\n        }\r\n        return false;\r\n\r\n        \r\n    }\r\n    \r\n    function lotto(uint256 _guess) public {\r\n        uint256 num = uint256(keccak256(abi.encodePacked(\"Pseudo_are_safu\")));\r\n        if (_guess == num) {\r\n            consecutive_wins[msg.sender] = consecutive_wins[msg.sender] + 1;\r\n        }else {\r\n            consecutive_wins[msg.sender] = 0;\r\n        }\r\n        \r\n    }\r\n\r\n    function lotto_validator() public returns (bool) {\r\n        require(consecutive_wins[msg.sender] > 1, \"No has ganado las suficientes partidas\");\r\n        require(participantes[msg.sender], \"No estas registrado\");\r\n\r\n        coin.sendCoin(msg.sender, 1);\r\n        return true;\r\n    }\r\n\r\n    function addFunds() public {\r\n        funds[msg.sender] += 100;\r\n    }\r\n\r\n\r\n    function retrieveFundsValidator(uint256 _funds) external returns (bool){\r\n\r\n        require((funds[msg.sender] -= _funds) >= 0, \"No tienes suficientes fondos\");\r\n        require(msg.sender != address(this), \"2\");\r\n        this.retrieveFunds(_funds);\r\n        return true;\r\n    \r\n    }\r\n\r\n    function retrieveFunds(uint256 _funds) external returns (bool){\r\n        \r\n        require((funds[tx.origin] -= _funds) >= 0, \"No tienes suficientes fondos\");\r\n        funds[tx.origin] -= _funds;\r\n        \r\n        require(msg.sender == address(this), \"No la retirada solo es autorizada por el casino\");\r\n\r\n        coin.sendCoin(tx.origin, 1);\r\n        return true;\r\n    }\r\n\r\n\r\n    function getConsecutiveWins() external view returns (uint256) {\r\n        \r\n        uint256 aux = consecutive_wins[msg.sender];\r\n        return aux;\r\n    }\r\n    \r\n    function getContractCoins() external view returns (uint256) {\r\n        return coin.balanceOf(address(this));\r\n    }\r\n\r\n    function getCoins() external view returns (uint256) {\r\n        return coin.balanceOf(msg.sender);\r\n    }\r\n\r\n    function getFunds() external view returns (uint256) {\r\n        return funds[msg.sender];\r\n    }\r\n\r\n    function apuntarse() public {\r\n        participantes[msg.sender] = true;\r\n    }\r\n}",
  "sourcePath": "C:\\Users\\pablo\\Desktop\\CTFHackOnDapp\\contracts\\CTF\\casino.sol",
  "compiler": {
    "name": "solc",
    "version": "0.8.18+commit.87f61d96.Emscripten.clang"
  },
  "schemaVersion": "3.4.11",
  "updatedAt": "2023-02-12T16:30:02.100Z",
  "networkType": "ethereum",
  "devdoc": {
    "kind": "dev",
    "methods": {},
    "version": 1
  },
  "userdoc": {
    "kind": "user",
    "methods": {},
    "version": 1
  }
}