{
  "contractName": "casinoCoin",
  "abi": [
    {
      "inputs": [],
      "stateMutability": "nonpayable",
      "type": "constructor"
    },
    {
      "anonymous": false,
      "inputs": [
        {
          "indexed": true,
          "internalType": "address",
          "name": "_from",
          "type": "address"
        },
        {
          "indexed": true,
          "internalType": "address",
          "name": "_to",
          "type": "address"
        },
        {
          "indexed": false,
          "internalType": "uint256",
          "name": "_value",
          "type": "uint256"
        }
      ],
      "name": "Transfer",
      "type": "event"
    },
    {
      "inputs": [
        {
          "internalType": "address",
          "name": "receiver",
          "type": "address"
        },
        {
          "internalType": "uint256",
          "name": "amount",
          "type": "uint256"
        }
      ],
      "name": "sendCoin",
      "outputs": [
        {
          "internalType": "bool",
          "name": "sufficient",
          "type": "bool"
        }
      ],
      "stateMutability": "nonpayable",
      "type": "function"
    },
    {
      "inputs": [
        {
          "internalType": "address",
          "name": "from",
          "type": "address"
        },
        {
          "internalType": "uint256",
          "name": "amount",
          "type": "uint256"
        }
      ],
      "name": "payCoins",
      "outputs": [
        {
          "internalType": "bool",
          "name": "",
          "type": "bool"
        }
      ],
      "stateMutability": "nonpayable",
      "type": "function"
    },
    {
      "inputs": [
        {
          "internalType": "address",
          "name": "account",
          "type": "address"
        }
      ],
      "name": "balanceOf",
      "outputs": [
        {
          "internalType": "uint256",
          "name": "",
          "type": "uint256"
        }
      ],
      "stateMutability": "view",
      "type": "function",
      "constant": true
    },
    {
      "inputs": [],
      "name": "mint",
      "outputs": [],
      "stateMutability": "nonpayable",
      "type": "function"
    }
  ],
  "bytecode": "0x60806040523480156200001157600080fd5b506040518060400160405280600c81526020017f4861636b4f6e436173696e6f0000000000000000000000000000000000000000815250600090816200005891906200033c565b506040518060400160405280600781526020017f4861636b4f6e4200000000000000000000000000000000000000000000000000815250600190816200009f91906200033c565b506012600260006101000a81548160ff021916908360ff16021790555062000423565b600081519050919050565b7f4e487b7100000000000000000000000000000000000000000000000000000000600052604160045260246000fd5b7f4e487b7100000000000000000000000000000000000000000000000000000000600052602260045260246000fd5b600060028204905060018216806200014457607f821691505b6020821081036200015a5762000159620000fc565b5b50919050565b60008190508160005260206000209050919050565b60006020601f8301049050919050565b600082821b905092915050565b600060088302620001c47fffffffffffffffffffffffffffffffffffffffffffffffffffffffffffffffff8262000185565b620001d0868362000185565b95508019841693508086168417925050509392505050565b6000819050919050565b6000819050919050565b60006200021d620002176200021184620001e8565b620001f2565b620001e8565b9050919050565b6000819050919050565b6200023983620001fc565b62000251620002488262000224565b84845462000192565b825550505050565b600090565b6200026862000259565b620002758184846200022e565b505050565b5b818110156200029d57620002916000826200025e565b6001810190506200027b565b5050565b601f821115620002ec57620002b68162000160565b620002c18462000175565b81016020851015620002d1578190505b620002e9620002e08562000175565b8301826200027a565b50505b505050565b600082821c905092915050565b60006200031160001984600802620002f1565b1980831691505092915050565b60006200032c8383620002fe565b9150826002028217905092915050565b6200034782620000c2565b67ffffffffffffffff811115620003635762000362620000cd565b5b6200036f82546200012b565b6200037c828285620002a1565b600060209050601f831160018114620003b457600084156200039f578287015190505b620003ab85826200031e565b8655506200041b565b601f198416620003c48662000160565b60005b82811015620003ee57848901518255600182019150602085019450602081019050620003c7565b868310156200040e57848901516200040a601f891682620002fe565b8355505b6001600288020188555050505b505050505050565b6107b380620004336000396000f3fe608060405234801561001057600080fd5b506004361061004c5760003560e01c80631249c58b1461005157806370a082311461005b57806390b98a111461008b578063b96a8af2146100bb575b600080fd5b6100596100eb565b005b61007560048036038101906100709190610583565b6101fb565b60405161008291906105c9565b60405180910390f35b6100a560048036038101906100a09190610610565b610244565b6040516100b2919061066b565b60405180910390f35b6100d560048036038101906100d09190610610565b6103b2565b6040516100e2919061066b565b60405180910390f35b6103e86003546100fb91906106b5565b6003819055506103e8600460003373ffffffffffffffffffffffffffffffffffffffff1673ffffffffffffffffffffffffffffffffffffffff1681526020019081526020016000205461014e91906106b5565b600460003373ffffffffffffffffffffffffffffffffffffffff1673ffffffffffffffffffffffffffffffffffffffff168152602001908152602001600020819055503373ffffffffffffffffffffffffffffffffffffffff16600073ffffffffffffffffffffffffffffffffffffffff167fddf252ad1be2c89b69c2b068fc378daa952ba7f163c4a11628f55a4df523b3ef6103e86040516101f1919061072e565b60405180910390a3565b6000600460008373ffffffffffffffffffffffffffffffffffffffff1673ffffffffffffffffffffffffffffffffffffffff168152602001908152602001600020549050919050565b600081600460003373ffffffffffffffffffffffffffffffffffffffff1673ffffffffffffffffffffffffffffffffffffffff16815260200190815260200160002054101561029657600090506103ac565b81600460003373ffffffffffffffffffffffffffffffffffffffff1673ffffffffffffffffffffffffffffffffffffffff16815260200190815260200160002060008282546102e59190610749565b9250508190555081600460008573ffffffffffffffffffffffffffffffffffffffff1673ffffffffffffffffffffffffffffffffffffffff168152602001908152602001600020600082825461033b91906106b5565b925050819055508273ffffffffffffffffffffffffffffffffffffffff163373ffffffffffffffffffffffffffffffffffffffff167fddf252ad1be2c89b69c2b068fc378daa952ba7f163c4a11628f55a4df523b3ef8460405161039f91906105c9565b60405180910390a3600190505b92915050565b600081600460008573ffffffffffffffffffffffffffffffffffffffff1673ffffffffffffffffffffffffffffffffffffffff168152602001908152602001600020541015610404576000905061051a565b81600460003373ffffffffffffffffffffffffffffffffffffffff1673ffffffffffffffffffffffffffffffffffffffff168152602001908152602001600020600082825461045391906106b5565b9250508190555081600460008573ffffffffffffffffffffffffffffffffffffffff1673ffffffffffffffffffffffffffffffffffffffff16815260200190815260200160002060008282546104a99190610749565b925050819055503373ffffffffffffffffffffffffffffffffffffffff168373ffffffffffffffffffffffffffffffffffffffff167fddf252ad1be2c89b69c2b068fc378daa952ba7f163c4a11628f55a4df523b3ef8460405161050d91906105c9565b60405180910390a3600190505b92915050565b600080fd5b600073ffffffffffffffffffffffffffffffffffffffff82169050919050565b600061055082610525565b9050919050565b61056081610545565b811461056b57600080fd5b50565b60008135905061057d81610557565b92915050565b60006020828403121561059957610598610520565b5b60006105a78482850161056e565b91505092915050565b6000819050919050565b6105c3816105b0565b82525050565b60006020820190506105de60008301846105ba565b92915050565b6105ed816105b0565b81146105f857600080fd5b50565b60008135905061060a816105e4565b92915050565b6000806040838503121561062757610626610520565b5b60006106358582860161056e565b9250506020610646858286016105fb565b9150509250929050565b60008115159050919050565b61066581610650565b82525050565b6000602082019050610680600083018461065c565b92915050565b7f4e487b7100000000000000000000000000000000000000000000000000000000600052601160045260246000fd5b60006106c0826105b0565b91506106cb836105b0565b92508282019050808211156106e3576106e2610686565b5b92915050565b6000819050919050565b6000819050919050565b600061071861071361070e846106e9565b6106f3565b6105b0565b9050919050565b610728816106fd565b82525050565b6000602082019050610743600083018461071f565b92915050565b6000610754826105b0565b915061075f836105b0565b925082820390508181111561077757610776610686565b5b9291505056fea26469706673582212201ae9cb4a62494e2665d2da7f3b89b07ad4ba66c05608f8c6a08569fb540268af64736f6c63430008120033",
  "immutableReferences": {},
  "source": "// SPDX-License-Identifier: AFL-3.0\r\n\r\npragma solidity >=0.8.13;\r\n\r\n//Simple Coin like contract to reward the players\r\n\r\ncontract casinoCoin {\r\n\r\n\tstring private name;\r\n    string private symbol;\r\n    uint8 private decimals;\r\n    uint256 private totalSupply;\r\n\r\n\tmapping (address => uint) balances;\r\n\r\n\tevent Transfer(address indexed _from, address indexed _to, uint256 _value);\r\n\r\n\tconstructor() {\r\n        name = \"HackOnCasino\";\r\n        symbol = \"HackOnB\";\r\n        decimals = 18;\r\n\r\n\t}\r\n\r\n\tfunction sendCoin(address receiver, uint amount) public returns(bool sufficient) {\r\n\t\tif (balances[msg.sender] < amount) return false;\r\n\t\tbalances[msg.sender] -= amount;\r\n\t\tbalances[receiver] += amount;\r\n\t\temit Transfer(msg.sender, receiver, amount);\r\n\t\treturn true;\r\n\t}\r\n\r\n\tfunction payCoins(address from, uint amount) public returns(bool) {\r\n\t\tif (balances[from] < amount) return false;\r\n\t\tbalances[msg.sender] += amount;\r\n\t\tbalances[from] -= amount;\r\n\t\temit Transfer(from, msg.sender, amount);\r\n\t\treturn true;\r\n\t\r\n\t}\r\n\r\n\tfunction balanceOf(address account) public view returns(uint) {\r\n\t\treturn balances[account];\r\n\t}\r\n\r\n\tfunction mint() public {\r\n\t\ttotalSupply = totalSupply + 1000;\r\n\t\tbalances[msg.sender] = balances[msg.sender] + 1000;\r\n\r\n\t\temit Transfer(address(0), msg.sender, 1000);\r\n\t}\r\n}\r\n",
  "sourcePath": "C:\\Users\\pablo\\Desktop\\CTFHackOnDapp\\contracts\\tokens\\casinoCoin.sol",
  "compiler": {
    "name": "solc",
    "version": "0.8.18+commit.87f61d96.Emscripten.clang"
  },
  "schemaVersion": "3.4.11",
  "updatedAt": "2023-02-11T13:01:15.142Z",
  "networkType": "ethereum",
  "devdoc": {
    "kind": "dev",
    "methods": {},
    "version": 1
  },
  "userdoc": {
    "kind": "user",
    "methods": {},
    "version": 1
  }
}